{
  "_format": "hh-sol-artifact-1",
  "contractName": "Voting",
  "sourceName": "contracts/Voting.sol",
  "abi": [
    {
      "inputs": [],
      "stateMutability": "nonpayable",
      "type": "constructor"
    },
    {
      "anonymous": false,
      "inputs": [
        {
          "indexed": false,
          "internalType": "uint256",
          "name": "id",
          "type": "uint256"
        },
        {
          "indexed": false,
          "internalType": "string",
          "name": "name",
          "type": "string"
        },
        {
          "indexed": false,
          "internalType": "string",
          "name": "party",
          "type": "string"
        }
      ],
      "name": "CandidateAdded",
      "type": "event"
    },
    {
      "anonymous": false,
      "inputs": [
        {
          "indexed": false,
          "internalType": "enum Voting.ElectionState",
          "name": "newState",
          "type": "uint8"
        }
      ],
      "name": "ElectionStateChanged",
      "type": "event"
    },
    {
      "anonymous": false,
      "inputs": [
        {
          "indexed": false,
          "internalType": "uint256",
          "name": "startTime",
          "type": "uint256"
        },
        {
          "indexed": false,
          "internalType": "uint256",
          "name": "endTime",
          "type": "uint256"
        }
      ],
      "name": "ElectionTimesSet",
      "type": "event"
    },
    {
      "anonymous": false,
      "inputs": [
        {
          "indexed": false,
          "internalType": "uint256",
          "name": "maxCandidates",
          "type": "uint256"
        },
        {
          "indexed": false,
          "internalType": "uint256",
          "name": "maxVoters",
          "type": "uint256"
        },
        {
          "indexed": false,
          "internalType": "uint256",
          "name": "maxRegisteredUsers",
          "type": "uint256"
        }
      ],
      "name": "LimitsUpdated",
      "type": "event"
    },
    {
      "anonymous": false,
      "inputs": [
        {
          "indexed": false,
          "internalType": "address",
          "name": "userAddress",
          "type": "address"
        },
        {
          "indexed": false,
          "internalType": "string",
          "name": "username",
          "type": "string"
        }
      ],
      "name": "UserDeleted",
      "type": "event"
    },
    {
      "anonymous": false,
      "inputs": [
        {
          "indexed": false,
          "internalType": "address",
          "name": "userAddress",
          "type": "address"
        },
        {
          "indexed": false,
          "internalType": "string",
          "name": "username",
          "type": "string"
        }
      ],
      "name": "UserRegistered",
      "type": "event"
    },
    {
      "anonymous": false,
      "inputs": [
        {
          "indexed": false,
          "internalType": "address",
          "name": "voter",
          "type": "address"
        },
        {
          "indexed": false,
          "internalType": "uint256",
          "name": "candidateId",
          "type": "uint256"
        }
      ],
      "name": "VoteCasted",
      "type": "event"
    },
    {
      "anonymous": false,
      "inputs": [
        {
          "indexed": false,
          "internalType": "address",
          "name": "voter",
          "type": "address"
        }
      ],
      "name": "VoterAuthorized",
      "type": "event"
    },
    {
      "inputs": [
        {
          "internalType": "string",
          "name": "_name",
          "type": "string"
        },
        {
          "internalType": "string",
          "name": "_party",
          "type": "string"
        },
        {
          "internalType": "string",
          "name": "_imageUrl",
          "type": "string"
        }
      ],
      "name": "addCandidate",
      "outputs": [],
      "stateMutability": "nonpayable",
      "type": "function"
    },
    {
      "inputs": [],
      "name": "admin",
      "outputs": [
        {
          "internalType": "address",
          "name": "",
          "type": "address"
        }
      ],
      "stateMutability": "view",
      "type": "function"
    },
    {
      "inputs": [
        {
          "internalType": "address",
          "name": "_voter",
          "type": "address"
        }
      ],
      "name": "authorizeVoter",
      "outputs": [],
      "stateMutability": "nonpayable",
      "type": "function"
    },
    {
      "inputs": [
        {
          "internalType": "uint256",
          "name": "",
          "type": "uint256"
        }
      ],
      "name": "candidates",
      "outputs": [
        {
          "internalType": "uint256",
          "name": "id",
          "type": "uint256"
        },
        {
          "internalType": "string",
          "name": "name",
          "type": "string"
        },
        {
          "internalType": "string",
          "name": "party",
          "type": "string"
        },
        {
          "internalType": "string",
          "name": "imageUrl",
          "type": "string"
        },
        {
          "internalType": "uint256",
          "name": "voteCount",
          "type": "uint256"
        }
      ],
      "stateMutability": "view",
      "type": "function"
    },
    {
      "inputs": [
        {
          "internalType": "address",
          "name": "_userAddress",
          "type": "address"
        }
      ],
      "name": "deleteUser",
      "outputs": [],
      "stateMutability": "nonpayable",
      "type": "function"
    },
    {
      "inputs": [],
      "name": "electionState",
      "outputs": [
        {
          "internalType": "enum Voting.ElectionState",
          "name": "",
          "type": "uint8"
        }
      ],
      "stateMutability": "view",
      "type": "function"
    },
    {
      "inputs": [],
      "name": "endElection",
      "outputs": [],
      "stateMutability": "nonpayable",
      "type": "function"
    },
    {
      "inputs": [],
      "name": "endTime",
      "outputs": [
        {
          "internalType": "uint256",
          "name": "",
          "type": "uint256"
        }
      ],
      "stateMutability": "view",
      "type": "function"
    },
    {
      "inputs": [],
      "name": "getAllVoters",
      "outputs": [
        {
          "internalType": "address[]",
          "name": "",
          "type": "address[]"
        }
      ],
      "stateMutability": "view",
      "type": "function"
    },
    {
      "inputs": [],
      "name": "getCandidates",
      "outputs": [
        {
          "components": [
            {
              "internalType": "uint256",
              "name": "id",
              "type": "uint256"
            },
            {
              "internalType": "string",
              "name": "name",
              "type": "string"
            },
            {
              "internalType": "string",
              "name": "party",
              "type": "string"
            },
            {
              "internalType": "string",
              "name": "imageUrl",
              "type": "string"
            },
            {
              "internalType": "uint256",
              "name": "voteCount",
              "type": "uint256"
            }
          ],
          "internalType": "struct Voting.Candidate[]",
          "name": "",
          "type": "tuple[]"
        }
      ],
      "stateMutability": "view",
      "type": "function"
    },
    {
      "inputs": [],
      "name": "getElectionTimes",
      "outputs": [
        {
          "internalType": "uint256",
          "name": "",
          "type": "uint256"
        },
        {
          "internalType": "uint256",
          "name": "",
          "type": "uint256"
        }
      ],
      "stateMutability": "view",
      "type": "function"
    },
    {
      "inputs": [],
      "name": "getRegisteredUsers",
      "outputs": [
        {
          "components": [
            {
              "internalType": "address",
              "name": "userAddress",
              "type": "address"
            },
            {
              "internalType": "string",
              "name": "username",
              "type": "string"
            },
            {
              "internalType": "bool",
              "name": "isRegistered",
              "type": "bool"
            }
          ],
          "internalType": "struct Voting.RegisteredUser[]",
          "name": "",
          "type": "tuple[]"
        }
      ],
      "stateMutability": "view",
      "type": "function"
    },
    {
      "inputs": [
        {
          "internalType": "address",
          "name": "_user",
          "type": "address"
        }
      ],
      "name": "getUserInfo",
      "outputs": [
        {
          "internalType": "string",
          "name": "username",
          "type": "string"
        },
        {
          "internalType": "bool",
          "name": "isRegistered",
          "type": "bool"
        },
        {
          "internalType": "bool",
          "name": "isAuthorized",
          "type": "bool"
        },
        {
          "internalType": "bool",
          "name": "hasVoted",
          "type": "bool"
        }
      ],
      "stateMutability": "view",
      "type": "function"
    },
    {
      "inputs": [
        {
          "internalType": "address",
          "name": "_voter",
          "type": "address"
        }
      ],
      "name": "getVoterStatus",
      "outputs": [
        {
          "internalType": "bool",
          "name": "isAuthorized",
          "type": "bool"
        },
        {
          "internalType": "bool",
          "name": "hasVoted",
          "type": "bool"
        }
      ],
      "stateMutability": "view",
      "type": "function"
    },
    {
      "inputs": [],
      "name": "maxCandidates",
      "outputs": [
        {
          "internalType": "uint256",
          "name": "",
          "type": "uint256"
        }
      ],
      "stateMutability": "view",
      "type": "function"
    },
    {
      "inputs": [],
      "name": "maxRegisteredUsers",
      "outputs": [
        {
          "internalType": "uint256",
          "name": "",
          "type": "uint256"
        }
      ],
      "stateMutability": "view",
      "type": "function"
    },
    {
      "inputs": [],
      "name": "maxVoters",
      "outputs": [
        {
          "internalType": "uint256",
          "name": "",
          "type": "uint256"
        }
      ],
      "stateMutability": "view",
      "type": "function"
    },
    {
      "inputs": [
        {
          "internalType": "string",
          "name": "_username",
          "type": "string"
        }
      ],
      "name": "registerUser",
      "outputs": [],
      "stateMutability": "nonpayable",
      "type": "function"
    },
    {
      "inputs": [
        {
          "internalType": "uint256",
          "name": "",
          "type": "uint256"
        }
      ],
      "name": "registeredUserAddresses",
      "outputs": [
        {
          "internalType": "address",
          "name": "",
          "type": "address"
        }
      ],
      "stateMutability": "view",
      "type": "function"
    },
    {
      "inputs": [
        {
          "internalType": "address",
          "name": "",
          "type": "address"
        }
      ],
      "name": "registeredUsers",
      "outputs": [
        {
          "internalType": "address",
          "name": "userAddress",
          "type": "address"
        },
        {
          "internalType": "string",
          "name": "username",
          "type": "string"
        },
        {
          "internalType": "bool",
          "name": "isRegistered",
          "type": "bool"
        }
      ],
      "stateMutability": "view",
      "type": "function"
    },
    {
      "inputs": [],
      "name": "resetElection",
      "outputs": [],
      "stateMutability": "nonpayable",
      "type": "function"
    },
    {
      "inputs": [
        {
          "internalType": "uint256",
          "name": "_startTime",
          "type": "uint256"
        },
        {
          "internalType": "uint256",
          "name": "_endTime",
          "type": "uint256"
        }
      ],
      "name": "setElectionTimes",
      "outputs": [],
      "stateMutability": "nonpayable",
      "type": "function"
    },
    {
      "inputs": [
        {
          "internalType": "uint256",
          "name": "_maxCandidates",
          "type": "uint256"
        },
        {
          "internalType": "uint256",
          "name": "_maxVoters",
          "type": "uint256"
        },
        {
          "internalType": "uint256",
          "name": "_maxRegisteredUsers",
          "type": "uint256"
        }
      ],
      "name": "setLimits",
      "outputs": [],
      "stateMutability": "nonpayable",
      "type": "function"
    },
    {
      "inputs": [],
      "name": "startElection",
      "outputs": [],
      "stateMutability": "nonpayable",
      "type": "function"
    },
    {
      "inputs": [],
      "name": "startTime",
      "outputs": [
        {
          "internalType": "uint256",
          "name": "",
          "type": "uint256"
        }
      ],
      "stateMutability": "view",
      "type": "function"
    },
    {
      "inputs": [
        {
          "internalType": "uint256",
          "name": "_candidateId",
          "type": "uint256"
        }
      ],
      "name": "vote",
      "outputs": [],
      "stateMutability": "nonpayable",
      "type": "function"
    },
    {
      "inputs": [
        {
          "internalType": "uint256",
          "name": "",
          "type": "uint256"
        }
      ],
      "name": "voterAddresses",
      "outputs": [
        {
          "internalType": "address",
          "name": "",
          "type": "address"
        }
      ],
      "stateMutability": "view",
      "type": "function"
    },
    {
      "inputs": [
        {
          "internalType": "address",
          "name": "",
          "type": "address"
        }
      ],
      "name": "voters",
      "outputs": [
        {
          "internalType": "bool",
          "name": "isAuthorized",
          "type": "bool"
        },
        {
          "internalType": "bool",
          "name": "hasVoted",
          "type": "bool"
        },
        {
          "internalType": "uint256",
          "name": "votedCandidateId",
          "type": "uint256"
        }
      ],
      "stateMutability": "view",
      "type": "function"
    }
  ],
  "bytecode": "0x6080604052348015600f57600080fd5b50336000806101000a81548173ffffffffffffffffffffffffffffffffffffffff021916908373ffffffffffffffffffffffffffffffffffffffff1602179055506000600660006101000a81548160ff0219169083600281111560735760726094565b5b0217905550600a600781905550606460088190555060c860098190555060c3565b7f4e487b7100000000000000000000000000000000000000000000000000000000600052602160045260246000fd5b61424d806100d26000396000f3fe608060405234801561001057600080fd5b50600436106101c45760003560e01c806365af2ac8116100f9578063ad71f8dc11610097578063e8f3052311610071578063e8f30523146104ef578063f851a440146104f9578063f9fc032014610517578063fd47b36814610536576101c4565b8063ad71f8dc14610485578063d5e50a63146104a1578063dd0e2373146104bf576101c4565b806378e3ef20116100d357806378e3ef20146103e657806378e97925146104175780637c46286c14610435578063a3ec138d14610453576101c4565b806365af2ac81461038e578063704f1b94146103ac5780637073c072146103c8576101c4565b80633197cbb61161016657806359f784681161014057806359f784681461032b5780635c60f2261461033557806362d73eb8146103515780636386c1c71461035b576101c4565b80633197cbb6146102bb5780633477ee2e146102d957806335bbe70e1461030d576101c4565b8063189ae5f2116101a2578063189ae5f2146102355780632280043d146102515780632365dce21461026f57806325d5b5cf1461029f576101c4565b80630121b93f146101c957806306a49fce146101e55780630e50cee514610203575b600080fd5b6101e360048036038101906101de9190612a13565b610552565b005b6101ed610846565b6040516101fa9190612c25565b60405180910390f35b61021d60048036038101906102189190612ca5565b610a6f565b60405161022c93929190612d46565b60405180910390f35b61024f600480360381019061024a9190612d84565b610b4e565b005b610259610c31565b6040516102669190612e4e565b60405180910390f35b61028960048036038101906102849190612a13565b610c44565b6040516102969190612e69565b60405180910390f35b6102b960048036038101906102b49190612e84565b610c83565b005b6102c3610e56565b6040516102d09190612ed3565b60405180910390f35b6102f360048036038101906102ee9190612a13565b610e5c565b604051610304959493929190612eee565b60405180910390f35b61031561103a565b6040516103229190613014565b60405180910390f35b6103336110c8565b005b61034f600480360381019061034a9190612ca5565b611231565b005b6103596116fe565b005b61037560048036038101906103709190612ca5565b6118ba565b6040516103859493929190613036565b60405180910390f35b610396611a8e565b6040516103a39190612ed3565b60405180910390f35b6103c660048036038101906103c191906131b7565b611a94565b005b6103d0611cfa565b6040516103dd9190613321565b60405180910390f35b61040060048036038101906103fb9190612ca5565b611f27565b60405161040e929190613343565b60405180910390f35b61041f611fd3565b60405161042c9190612ed3565b60405180910390f35b61043d611fd9565b60405161044a9190612ed3565b60405180910390f35b61046d60048036038101906104689190612ca5565b611fdf565b60405161047c9392919061336c565b60405180910390f35b61049f600480360381019061049a91906133a3565b612023565b005b6104a9612266565b6040516104b69190612ed3565b60405180910390f35b6104d960048036038101906104d49190612a13565b61226c565b6040516104e69190612e69565b60405180910390f35b6104f76122ab565b005b610501612604565b60405161050e9190612e69565b60405180910390f35b61051f612628565b60405161052d92919061344a565b60405180910390f35b610550600480360381019061054b9190612ca5565b612639565b005b6001600281111561056657610565612dd7565b5b600660009054906101000a900460ff16600281111561058857610587612dd7565b5b146105c8576040517f08c379a00000000000000000000000000000000000000000000000000000000081526004016105bf906134bf565b60405180910390fd5b600160003373ffffffffffffffffffffffffffffffffffffffff1673ffffffffffffffffffffffffffffffffffffffff16815260200190815260200160002060000160009054906101000a900460ff16610657576040517f08c379a000000000000000000000000000000000000000000000000000000000815260040161064e9061352b565b60405180910390fd5b600160003373ffffffffffffffffffffffffffffffffffffffff1673ffffffffffffffffffffffffffffffffffffffff16815260200190815260200160002060000160019054906101000a900460ff16156106e7576040517f08c379a00000000000000000000000000000000000000000000000000000000081526004016106de90613597565b60405180910390fd5b600380549050811061072e576040517f08c379a000000000000000000000000000000000000000000000000000000000815260040161072590613603565b60405180910390fd5b60018060003373ffffffffffffffffffffffffffffffffffffffff1673ffffffffffffffffffffffffffffffffffffffff16815260200190815260200160002060000160016101000a81548160ff02191690831515021790555080600160003373ffffffffffffffffffffffffffffffffffffffff1673ffffffffffffffffffffffffffffffffffffffff16815260200190815260200160002060010181905550600381815481106107e3576107e2613623565b5b9060005260206000209060050201600401600081548092919061080590613681565b91905055507fd0e6c39f2e086dc49f1524b47725526a56945cd1ff661f37976f1725a1e56986338260405161083b9291906136c9565b60405180910390a150565b60606003805480602002602001604051908101604052809291908181526020016000905b82821015610a6657838290600052602060002090600502016040518060a0016040529081600082015481526020016001820180546108a790613721565b80601f01602080910402602001604051908101604052809291908181526020018280546108d390613721565b80156109205780601f106108f557610100808354040283529160200191610920565b820191906000526020600020905b81548152906001019060200180831161090357829003601f168201915b5050505050815260200160028201805461093990613721565b80601f016020809104026020016040519081016040528092919081815260200182805461096590613721565b80156109b25780601f10610987576101008083540402835291602001916109b2565b820191906000526020600020905b81548152906001019060200180831161099557829003601f168201915b505050505081526020016003820180546109cb90613721565b80601f01602080910402602001604051908101604052809291908181526020018280546109f790613721565b8015610a445780601f10610a1957610100808354040283529160200191610a44565b820191906000526020600020905b815481529060010190602001808311610a2757829003601f168201915b505050505081526020016004820154815250508152602001906001019061086a565b50505050905090565b60026020528060005260406000206000915090508060000160009054906101000a900473ffffffffffffffffffffffffffffffffffffffff1690806001018054610ab890613721565b80601f0160208091040260200160405190810160405280929190818152602001828054610ae490613721565b8015610b315780601f10610b0657610100808354040283529160200191610b31565b820191906000526020600020905b815481529060010190602001808311610b1457829003601f168201915b5050505050908060020160009054906101000a900460ff16905083565b60008054906101000a900473ffffffffffffffffffffffffffffffffffffffff1673ffffffffffffffffffffffffffffffffffffffff163373ffffffffffffffffffffffffffffffffffffffff1614610bdc576040517f08c379a0000000000000000000000000000000000000000000000000000000008152600401610bd3906137c4565b60405180910390fd5b8260078190555081600881905550806009819055507faa2ef8ba434f2f6bdaad3fcc2d5c35f02b08a47173c94877259407614bc46b55838383604051610c24939291906137e4565b60405180910390a1505050565b600660009054906101000a900460ff1681565b60058181548110610c5457600080fd5b906000526020600020016000915054906101000a900473ffffffffffffffffffffffffffffffffffffffff1681565b60008054906101000a900473ffffffffffffffffffffffffffffffffffffffff1673ffffffffffffffffffffffffffffffffffffffff163373ffffffffffffffffffffffffffffffffffffffff1614610d11576040517f08c379a0000000000000000000000000000000000000000000000000000000008152600401610d08906137c4565b60405180910390fd5b60006002811115610d2557610d24612dd7565b5b600660009054906101000a900460ff166002811115610d4757610d46612dd7565b5b14610d87576040517f08c379a0000000000000000000000000000000000000000000000000000000008152600401610d7e9061388d565b60405180910390fd5b818111610dc9576040517f08c379a0000000000000000000000000000000000000000000000000000000008152600401610dc09061391f565b60405180910390fd5b428211610e0b576040517f08c379a0000000000000000000000000000000000000000000000000000000008152600401610e029061398b565b60405180910390fd5b81600a8190555080600b819055507f3b9502f0c4ed55d63f6af201e29c5d6b694a6f0ed9d6af926728258c3ed406798282604051610e4a92919061344a565b60405180910390a15050565b600b5481565b60038181548110610e6c57600080fd5b9060005260206000209060050201600091509050806000015490806001018054610e9590613721565b80601f0160208091040260200160405190810160405280929190818152602001828054610ec190613721565b8015610f0e5780601f10610ee357610100808354040283529160200191610f0e565b820191906000526020600020905b815481529060010190602001808311610ef157829003601f168201915b505050505090806002018054610f2390613721565b80601f0160208091040260200160405190810160405280929190818152602001828054610f4f90613721565b8015610f9c5780601f10610f7157610100808354040283529160200191610f9c565b820191906000526020600020905b815481529060010190602001808311610f7f57829003601f168201915b505050505090806003018054610fb190613721565b80601f0160208091040260200160405190810160405280929190818152602001828054610fdd90613721565b801561102a5780601f10610fff5761010080835404028352916020019161102a565b820191906000526020600020905b81548152906001019060200180831161100d57829003601f168201915b5050505050908060040154905085565b606060048054806020026020016040519081016040528092919081815260200182805480156110be57602002820191906000526020600020905b8160009054906101000a900473ffffffffffffffffffffffffffffffffffffffff1673ffffffffffffffffffffffffffffffffffffffff1681526020019060010190808311611074575b5050505050905090565b60008054906101000a900473ffffffffffffffffffffffffffffffffffffffff1673ffffffffffffffffffffffffffffffffffffffff163373ffffffffffffffffffffffffffffffffffffffff1614611156576040517f08c379a000000000000000000000000000000000000000000000000000000000815260040161114d906137c4565b60405180910390fd5b6001600281111561116a57611169612dd7565b5b600660009054906101000a900460ff16600281111561118c5761118b612dd7565b5b146111cc576040517f08c379a00000000000000000000000000000000000000000000000000000000081526004016111c3906134bf565b60405180910390fd5b6002600660006101000a81548160ff021916908360028111156111f2576111f1612dd7565b5b02179055507f82aa0cc22cbb103bd5f28a40c65b9e63f2df333bbb70c6c9128eb83d7cb1041d60026040516112279190612e4e565b60405180910390a1565b60008054906101000a900473ffffffffffffffffffffffffffffffffffffffff1673ffffffffffffffffffffffffffffffffffffffff163373ffffffffffffffffffffffffffffffffffffffff16146112bf576040517f08c379a00000000000000000000000000000000000000000000000000000000081526004016112b6906137c4565b60405180910390fd5b600260008273ffffffffffffffffffffffffffffffffffffffff1673ffffffffffffffffffffffffffffffffffffffff16815260200190815260200160002060020160009054906101000a900460ff1661134e576040517f08c379a0000000000000000000000000000000000000000000000000000000008152600401611345906139f7565b60405180910390fd5b600160008273ffffffffffffffffffffffffffffffffffffffff1673ffffffffffffffffffffffffffffffffffffffff16815260200190815260200160002060000160009054906101000a900460ff16156113de576040517f08c379a00000000000000000000000000000000000000000000000000000000081526004016113d590613a63565b60405180910390fd5b6000600260008373ffffffffffffffffffffffffffffffffffffffff1673ffffffffffffffffffffffffffffffffffffffff168152602001908152602001600020600101805461142d90613721565b80601f016020809104026020016040519081016040528092919081815260200182805461145990613721565b80156114a65780601f1061147b576101008083540402835291602001916114a6565b820191906000526020600020905b81548152906001019060200180831161148957829003601f168201915b50505050509050600260008373ffffffffffffffffffffffffffffffffffffffff1673ffffffffffffffffffffffffffffffffffffffff168152602001908152602001600020600080820160006101000a81549073ffffffffffffffffffffffffffffffffffffffff02191690556001820160006115249190612897565b6002820160006101000a81549060ff0219169055505060005b6005805490508110156116c0578273ffffffffffffffffffffffffffffffffffffffff166005828154811061157557611574613623565b5b9060005260206000200160009054906101000a900473ffffffffffffffffffffffffffffffffffffffff1673ffffffffffffffffffffffffffffffffffffffff16036116b357600560016005805490506115cf9190613a83565b815481106115e0576115df613623565b5b9060005260206000200160009054906101000a900473ffffffffffffffffffffffffffffffffffffffff166005828154811061161f5761161e613623565b5b9060005260206000200160006101000a81548173ffffffffffffffffffffffffffffffffffffffff021916908373ffffffffffffffffffffffffffffffffffffffff160217905550600580548061167957611678613ab7565b5b6001900381819060005260206000200160006101000a81549073ffffffffffffffffffffffffffffffffffffffff021916905590556116c0565b808060010191505061153d565b507f32b931fea2d04014124dfdebbcff93ed4b64527a35af5d25c75a1a79b2f5b3bf82826040516116f2929190613ae6565b60405180910390a15050565b60008054906101000a900473ffffffffffffffffffffffffffffffffffffffff1673ffffffffffffffffffffffffffffffffffffffff163373ffffffffffffffffffffffffffffffffffffffff161461178c576040517f08c379a0000000000000000000000000000000000000000000000000000000008152600401611783906137c4565b60405180910390fd5b600060028111156117a05761179f612dd7565b5b600660009054906101000a900460ff1660028111156117c2576117c1612dd7565b5b14611802576040517f08c379a00000000000000000000000000000000000000000000000000000000081526004016117f990613b88565b60405180910390fd5b6000600a5411801561181657506000600b54115b611855576040517f08c379a000000000000000000000000000000000000000000000000000000000815260040161184c90613bf4565b60405180910390fd5b6001600660006101000a81548160ff0219169083600281111561187b5761187a612dd7565b5b02179055507f82aa0cc22cbb103bd5f28a40c65b9e63f2df333bbb70c6c9128eb83d7cb1041d60016040516118b09190612e4e565b60405180910390a1565b60606000806000600260008673ffffffffffffffffffffffffffffffffffffffff1673ffffffffffffffffffffffffffffffffffffffff168152602001908152602001600020600101600260008773ffffffffffffffffffffffffffffffffffffffff1673ffffffffffffffffffffffffffffffffffffffff16815260200190815260200160002060020160009054906101000a900460ff16600160008873ffffffffffffffffffffffffffffffffffffffff1673ffffffffffffffffffffffffffffffffffffffff16815260200190815260200160002060000160009054906101000a900460ff16600160008973ffffffffffffffffffffffffffffffffffffffff1673ffffffffffffffffffffffffffffffffffffffff16815260200190815260200160002060000160019054906101000a900460ff168380546119ff90613721565b80601f0160208091040260200160405190810160405280929190818152602001828054611a2b90613721565b8015611a785780601f10611a4d57610100808354040283529160200191611a78565b820191906000526020600020905b815481529060010190602001808311611a5b57829003601f168201915b5050505050935093509350935093509193509193565b60075481565b600260003373ffffffffffffffffffffffffffffffffffffffff1673ffffffffffffffffffffffffffffffffffffffff16815260200190815260200160002060020160009054906101000a900460ff1615611b24576040517f08c379a0000000000000000000000000000000000000000000000000000000008152600401611b1b90613c60565b60405180910390fd5b6000815111611b68576040517f08c379a0000000000000000000000000000000000000000000000000000000008152600401611b5f90613ccc565b60405180910390fd5b60405180606001604052803373ffffffffffffffffffffffffffffffffffffffff16815260200182815260200160011515815250600260003373ffffffffffffffffffffffffffffffffffffffff1673ffffffffffffffffffffffffffffffffffffffff16815260200190815260200160002060008201518160000160006101000a81548173ffffffffffffffffffffffffffffffffffffffff021916908373ffffffffffffffffffffffffffffffffffffffff1602179055506020820151816001019081611c379190613e98565b5060408201518160020160006101000a81548160ff0219169083151502179055509050506005339080600181540180825580915050600190039060005260206000200160009091909190916101000a81548173ffffffffffffffffffffffffffffffffffffffff021916908373ffffffffffffffffffffffffffffffffffffffff1602179055507f48cac28ad4dc618e15f4c2dd5e97751182f166de97b25618318b2112aa951a2f3382604051611cef929190613ae6565b60405180910390a150565b6060600060058054905067ffffffffffffffff811115611d1d57611d1c61308c565b5b604051908082528060200260200182016040528015611d5657816020015b611d436128d7565b815260200190600190039081611d3b5790505b50905060005b600580549050811015611f1f576002600060058381548110611d8157611d80613623565b5b9060005260206000200160009054906101000a900473ffffffffffffffffffffffffffffffffffffffff1673ffffffffffffffffffffffffffffffffffffffff1673ffffffffffffffffffffffffffffffffffffffff1681526020019081526020016000206040518060600160405290816000820160009054906101000a900473ffffffffffffffffffffffffffffffffffffffff1673ffffffffffffffffffffffffffffffffffffffff1673ffffffffffffffffffffffffffffffffffffffff168152602001600182018054611e5790613721565b80601f0160208091040260200160405190810160405280929190818152602001828054611e8390613721565b8015611ed05780601f10611ea557610100808354040283529160200191611ed0565b820191906000526020600020905b815481529060010190602001808311611eb357829003601f168201915b505050505081526020016002820160009054906101000a900460ff161515151581525050828281518110611f0757611f06613623565b5b60200260200101819052508080600101915050611d5c565b508091505090565b600080600160008473ffffffffffffffffffffffffffffffffffffffff1673ffffffffffffffffffffffffffffffffffffffff16815260200190815260200160002060000160009054906101000a900460ff16600160008573ffffffffffffffffffffffffffffffffffffffff1673ffffffffffffffffffffffffffffffffffffffff16815260200190815260200160002060000160019054906101000a900460ff1691509150915091565b600a5481565b60095481565b60016020528060005260406000206000915090508060000160009054906101000a900460ff16908060000160019054906101000a900460ff16908060010154905083565b60008054906101000a900473ffffffffffffffffffffffffffffffffffffffff1673ffffffffffffffffffffffffffffffffffffffff163373ffffffffffffffffffffffffffffffffffffffff16146120b1576040517f08c379a00000000000000000000000000000000000000000000000000000000081526004016120a8906137c4565b60405180910390fd5b600754600380549050106120fa576040517f08c379a00000000000000000000000000000000000000000000000000000000081526004016120f190613fb6565b60405180910390fd5b6000600281111561210e5761210d612dd7565b5b600660009054906101000a900460ff1660028111156121305761212f612dd7565b5b14612170576040517f08c379a000000000000000000000000000000000000000000000000000000000815260040161216790614048565b60405180910390fd5b6000600380549050905060036040518060a00160405280838152602001868152602001858152602001848152602001600081525090806001815401808255809150506001900390600052602060002090600502016000909190919091506000820151816000015560208201518160010190816121ec9190613e98565b5060408201518160020190816122029190613e98565b5060608201518160030190816122189190613e98565b506080820151816004015550507fe64f834082661dd9ed89427b87edb6270fd6dad17198b0938f0edd058914c87f81858560405161225893929190614068565b60405180910390a150505050565b60085481565b6004818154811061227c57600080fd5b906000526020600020016000915054906101000a900473ffffffffffffffffffffffffffffffffffffffff1681565b60008054906101000a900473ffffffffffffffffffffffffffffffffffffffff1673ffffffffffffffffffffffffffffffffffffffff163373ffffffffffffffffffffffffffffffffffffffff1614612339576040517f08c379a0000000000000000000000000000000000000000000000000000000008152600401612330906137c4565b60405180910390fd5b60028081111561234c5761234b612dd7565b5b600660009054906101000a900460ff16600281111561236e5761236d612dd7565b5b146123ae576040517f08c379a00000000000000000000000000000000000000000000000000000000081526004016123a59061411f565b60405180910390fd5b600360006123bc9190612910565b60005b6004805490508110156124895760016000600483815481106123e4576123e3613623565b5b9060005260206000200160009054906101000a900473ffffffffffffffffffffffffffffffffffffffff1673ffffffffffffffffffffffffffffffffffffffff1673ffffffffffffffffffffffffffffffffffffffff168152602001908152602001600020600080820160006101000a81549060ff02191690556000820160016101000a81549060ff02191690556001820160009055505080806001019150506123bf565b50600460006124989190612934565b60005b6005805490508110156125805760026000600583815481106124c0576124bf613623565b5b9060005260206000200160009054906101000a900473ffffffffffffffffffffffffffffffffffffffff1673ffffffffffffffffffffffffffffffffffffffff1673ffffffffffffffffffffffffffffffffffffffff168152602001908152602001600020600080820160006101000a81549073ffffffffffffffffffffffffffffffffffffffff021916905560018201600061255d9190612897565b6002820160006101000a81549060ff02191690555050808060010191505061249b565b506005600061258f9190612934565b6000600a819055506000600b819055506000600660006101000a81548160ff021916908360028111156125c5576125c4612dd7565b5b02179055507f82aa0cc22cbb103bd5f28a40c65b9e63f2df333bbb70c6c9128eb83d7cb1041d60006040516125fa9190612e4e565b60405180910390a1565b60008054906101000a900473ffffffffffffffffffffffffffffffffffffffff1681565b600080600a54600b54915091509091565b60008054906101000a900473ffffffffffffffffffffffffffffffffffffffff1673ffffffffffffffffffffffffffffffffffffffff163373ffffffffffffffffffffffffffffffffffffffff16146126c7576040517f08c379a00000000000000000000000000000000000000000000000000000000081526004016126be906137c4565b60405180910390fd5b60085460048054905010612710576040517f08c379a00000000000000000000000000000000000000000000000000000000081526004016127079061418b565b60405180910390fd5b600160008273ffffffffffffffffffffffffffffffffffffffff1673ffffffffffffffffffffffffffffffffffffffff16815260200190815260200160002060000160009054906101000a900460ff16156127a0576040517f08c379a0000000000000000000000000000000000000000000000000000000008152600401612797906141f7565b60405180910390fd5b60018060008373ffffffffffffffffffffffffffffffffffffffff1673ffffffffffffffffffffffffffffffffffffffff16815260200190815260200160002060000160006101000a81548160ff0219169083151502179055506004819080600181540180825580915050600190039060005260206000200160009091909190916101000a81548173ffffffffffffffffffffffffffffffffffffffff021916908373ffffffffffffffffffffffffffffffffffffffff1602179055507f0ca65a9f1f88bd7257ac852d1062853358f81cdc56f9634dcbeed6090f8dfb438160405161288c9190612e69565b60405180910390a150565b5080546128a390613721565b6000825580601f106128b557506128d4565b601f0160209004906000526020600020908101906128d39190612955565b5b50565b6040518060600160405280600073ffffffffffffffffffffffffffffffffffffffff168152602001606081526020016000151581525090565b50805460008255600502906000526020600020908101906129319190612972565b50565b50805460008255906000526020600020908101906129529190612955565b50565b5b8082111561296e576000816000905550600101612956565b5090565b5b808211156129c5576000808201600090556001820160006129949190612897565b6002820160006129a49190612897565b6003820160006129b49190612897565b600482016000905550600501612973565b5090565b6000604051905090565b600080fd5b600080fd5b6000819050919050565b6129f0816129dd565b81146129fb57600080fd5b50565b600081359050612a0d816129e7565b92915050565b600060208284031215612a2957612a286129d3565b5b6000612a37848285016129fe565b91505092915050565b600081519050919050565b600082825260208201905092915050565b6000819050602082019050919050565b612a75816129dd565b82525050565b600081519050919050565b600082825260208201905092915050565b60005b83811015612ab5578082015181840152602081019050612a9a565b60008484015250505050565b6000601f19601f8301169050919050565b6000612add82612a7b565b612ae78185612a86565b9350612af7818560208601612a97565b612b0081612ac1565b840191505092915050565b600060a083016000830151612b236000860182612a6c565b5060208301518482036020860152612b3b8282612ad2565b91505060408301518482036040860152612b558282612ad2565b91505060608301518482036060860152612b6f8282612ad2565b9150506080830151612b846080860182612a6c565b508091505092915050565b6000612b9b8383612b0b565b905092915050565b6000602082019050919050565b6000612bbb82612a40565b612bc58185612a4b565b935083602082028501612bd785612a5c565b8060005b85811015612c135784840389528151612bf48582612b8f565b9450612bff83612ba3565b925060208a01995050600181019050612bdb565b50829750879550505050505092915050565b60006020820190508181036000830152612c3f8184612bb0565b905092915050565b600073ffffffffffffffffffffffffffffffffffffffff82169050919050565b6000612c7282612c47565b9050919050565b612c8281612c67565b8114612c8d57600080fd5b50565b600081359050612c9f81612c79565b92915050565b600060208284031215612cbb57612cba6129d3565b5b6000612cc984828501612c90565b91505092915050565b612cdb81612c67565b82525050565b600082825260208201905092915050565b6000612cfd82612a7b565b612d078185612ce1565b9350612d17818560208601612a97565b612d2081612ac1565b840191505092915050565b60008115159050919050565b612d4081612d2b565b82525050565b6000606082019050612d5b6000830186612cd2565b8181036020830152612d6d8185612cf2565b9050612d7c6040830184612d37565b949350505050565b600080600060608486031215612d9d57612d9c6129d3565b5b6000612dab868287016129fe565b9350506020612dbc868287016129fe565b9250506040612dcd868287016129fe565b9150509250925092565b7f4e487b7100000000000000000000000000000000000000000000000000000000600052602160045260246000fd5b60038110612e1757612e16612dd7565b5b50565b6000819050612e2882612e06565b919050565b6000612e3882612e1a565b9050919050565b612e4881612e2d565b82525050565b6000602082019050612e636000830184612e3f565b92915050565b6000602082019050612e7e6000830184612cd2565b92915050565b60008060408385031215612e9b57612e9a6129d3565b5b6000612ea9858286016129fe565b9250506020612eba858286016129fe565b9150509250929050565b612ecd816129dd565b82525050565b6000602082019050612ee86000830184612ec4565b92915050565b600060a082019050612f036000830188612ec4565b8181036020830152612f158187612cf2565b90508181036040830152612f298186612cf2565b90508181036060830152612f3d8185612cf2565b9050612f4c6080830184612ec4565b9695505050505050565b600081519050919050565b600082825260208201905092915050565b6000819050602082019050919050565b612f8b81612c67565b82525050565b6000612f9d8383612f82565b60208301905092915050565b6000602082019050919050565b6000612fc182612f56565b612fcb8185612f61565b9350612fd683612f72565b8060005b83811015613007578151612fee8882612f91565b9750612ff983612fa9565b925050600181019050612fda565b5085935050505092915050565b6000602082019050818103600083015261302e8184612fb6565b905092915050565b600060808201905081810360008301526130508187612cf2565b905061305f6020830186612d37565b61306c6040830185612d37565b6130796060830184612d37565b95945050505050565b600080fd5b600080fd5b7f4e487b7100000000000000000000000000000000000000000000000000000000600052604160045260246000fd5b6130c482612ac1565b810181811067ffffffffffffffff821117156130e3576130e261308c565b5b80604052505050565b60006130f66129c9565b905061310282826130bb565b919050565b600067ffffffffffffffff8211156131225761312161308c565b5b61312b82612ac1565b9050602081019050919050565b82818337600083830152505050565b600061315a61315584613107565b6130ec565b90508281526020810184848401111561317657613175613087565b5b613181848285613138565b509392505050565b600082601f83011261319e5761319d613082565b5b81356131ae848260208601613147565b91505092915050565b6000602082840312156131cd576131cc6129d3565b5b600082013567ffffffffffffffff8111156131eb576131ea6129d8565b5b6131f784828501613189565b91505092915050565b600081519050919050565b600082825260208201905092915050565b6000819050602082019050919050565b61323581612d2b565b82525050565b60006060830160008301516132536000860182612f82565b506020830151848203602086015261326b8282612ad2565b9150506040830151613280604086018261322c565b508091505092915050565b6000613297838361323b565b905092915050565b6000602082019050919050565b60006132b782613200565b6132c1818561320b565b9350836020820285016132d38561321c565b8060005b8581101561330f57848403895281516132f0858261328b565b94506132fb8361329f565b925060208a019950506001810190506132d7565b50829750879550505050505092915050565b6000602082019050818103600083015261333b81846132ac565b905092915050565b60006040820190506133586000830185612d37565b6133656020830184612d37565b9392505050565b60006060820190506133816000830186612d37565b61338e6020830185612d37565b61339b6040830184612ec4565b949350505050565b6000806000606084860312156133bc576133bb6129d3565b5b600084013567ffffffffffffffff8111156133da576133d96129d8565b5b6133e686828701613189565b935050602084013567ffffffffffffffff811115613407576134066129d8565b5b61341386828701613189565b925050604084013567ffffffffffffffff811115613434576134336129d8565b5b61344086828701613189565b9150509250925092565b600060408201905061345f6000830185612ec4565b61346c6020830184612ec4565b9392505050565b7f456c656374696f6e206973206e6f74206f70656e000000000000000000000000600082015250565b60006134a9601483612ce1565b91506134b482613473565b602082019050919050565b600060208201905081810360008301526134d88161349c565b9050919050565b7f596f7520617265206e6f7420617574686f72697a656420746f20766f74650000600082015250565b6000613515601e83612ce1565b9150613520826134df565b602082019050919050565b6000602082019050818103600083015261354481613508565b9050919050565b7f596f75206861766520616c726561647920766f74656400000000000000000000600082015250565b6000613581601683612ce1565b915061358c8261354b565b602082019050919050565b600060208201905081810360008301526135b081613574565b9050919050565b7f496e76616c69642063616e646964617465204944000000000000000000000000600082015250565b60006135ed601483612ce1565b91506135f8826135b7565b602082019050919050565b6000602082019050818103600083015261361c816135e0565b9050919050565b7f4e487b7100000000000000000000000000000000000000000000000000000000600052603260045260246000fd5b7f4e487b7100000000000000000000000000000000000000000000000000000000600052601160045260246000fd5b600061368c826129dd565b91507fffffffffffffffffffffffffffffffffffffffffffffffffffffffffffffffff82036136be576136bd613652565b5b600182019050919050565b60006040820190506136de6000830185612cd2565b6136eb6020830184612ec4565b9392505050565b7f4e487b7100000000000000000000000000000000000000000000000000000000600052602260045260246000fd5b6000600282049050600182168061373957607f821691505b60208210810361374c5761374b6136f2565b5b50919050565b7f4f6e6c792061646d696e2063616e20706572666f726d2074686973206163746960008201527f6f6e000000000000000000000000000000000000000000000000000000000000602082015250565b60006137ae602283612ce1565b91506137b982613752565b604082019050919050565b600060208201905081810360008301526137dd816137a1565b9050919050565b60006060820190506137f96000830186612ec4565b6138066020830185612ec4565b6138136040830184612ec4565b949350505050565b7f43616e6e6f74207365742074696d657320616674657220656c656374696f6e2060008201527f7374617274656400000000000000000000000000000000000000000000000000602082015250565b6000613877602783612ce1565b91506138828261381b565b604082019050919050565b600060208201905081810360008301526138a68161386a565b9050919050565b7f456e642074696d65206d7573742062652061667465722073746172742074696d60008201527f6500000000000000000000000000000000000000000000000000000000000000602082015250565b6000613909602183612ce1565b9150613914826138ad565b604082019050919050565b60006020820190508181036000830152613938816138fc565b9050919050565b7f53746172742074696d65206d75737420626520696e2074686520667574757265600082015250565b6000613975602083612ce1565b91506139808261393f565b602082019050919050565b600060208201905081810360008301526139a481613968565b9050919050565b7f55736572206e6f74207265676973746572656400000000000000000000000000600082015250565b60006139e1601383612ce1565b91506139ec826139ab565b602082019050919050565b60006020820190508181036000830152613a10816139d4565b9050919050565b7f43616e6e6f742064656c65746520617574686f72697a656420766f7465720000600082015250565b6000613a4d601e83612ce1565b9150613a5882613a17565b602082019050919050565b60006020820190508181036000830152613a7c81613a40565b9050919050565b6000613a8e826129dd565b9150613a99836129dd565b9250828203905081811115613ab157613ab0613652565b5b92915050565b7f4e487b7100000000000000000000000000000000000000000000000000000000600052603160045260246000fd5b6000604082019050613afb6000830185612cd2565b8181036020830152613b0d8184612cf2565b90509392505050565b7f456c656374696f6e20616c72656164792073746172746564206f7220636c6f7360008201527f6564000000000000000000000000000000000000000000000000000000000000602082015250565b6000613b72602283612ce1565b9150613b7d82613b16565b604082019050919050565b60006020820190508181036000830152613ba181613b65565b9050919050565b7f456c656374696f6e2074696d6573206d75737420626520736574206669727374600082015250565b6000613bde602083612ce1565b9150613be982613ba8565b602082019050919050565b60006020820190508181036000830152613c0d81613bd1565b9050919050565b7f5573657220616c72656164792072656769737465726564000000000000000000600082015250565b6000613c4a601783612ce1565b9150613c5582613c14565b602082019050919050565b60006020820190508181036000830152613c7981613c3d565b9050919050565b7f557365726e616d652063616e6e6f7420626520656d7074790000000000000000600082015250565b6000613cb6601883612ce1565b9150613cc182613c80565b602082019050919050565b60006020820190508181036000830152613ce581613ca9565b9050919050565b60008190508160005260206000209050919050565b60006020601f8301049050919050565b600082821b905092915050565b600060088302613d4e7fffffffffffffffffffffffffffffffffffffffffffffffffffffffffffffffff82613d11565b613d588683613d11565b95508019841693508086168417925050509392505050565b6000819050919050565b6000613d95613d90613d8b846129dd565b613d70565b6129dd565b9050919050565b6000819050919050565b613daf83613d7a565b613dc3613dbb82613d9c565b848454613d1e565b825550505050565b600090565b613dd8613dcb565b613de3818484613da6565b505050565b5b81811015613e0757613dfc600082613dd0565b600181019050613de9565b5050565b601f821115613e4c57613e1d81613cec565b613e2684613d01565b81016020851015613e35578190505b613e49613e4185613d01565b830182613de8565b50505b505050565b600082821c905092915050565b6000613e6f60001984600802613e51565b1980831691505092915050565b6000613e888383613e5e565b9150826002028217905092915050565b613ea182612a7b565b67ffffffffffffffff811115613eba57613eb961308c565b5b613ec48254613721565b613ecf828285613e0b565b600060209050601f831160018114613f025760008415613ef0578287015190505b613efa8582613e7c565b865550613f62565b601f198416613f1086613cec565b60005b82811015613f3857848901518255600182019150602085019450602081019050613f13565b86831015613f555784890151613f51601f891682613e5e565b8355505b6001600288020188555050505b505050505050565b7f4d61782063616e64696461746573207265616368656400000000000000000000600082015250565b6000613fa0601683612ce1565b9150613fab82613f6a565b602082019050919050565b60006020820190508181036000830152613fcf81613f93565b9050919050565b7f43616e6e6f74206164642063616e6469646174657320647572696e6720656c6560008201527f6374696f6e000000000000000000000000000000000000000000000000000000602082015250565b6000614032602583612ce1565b915061403d82613fd6565b604082019050919050565b6000602082019050818103600083015261406181614025565b9050919050565b600060608201905061407d6000830186612ec4565b818103602083015261408f8185612cf2565b905081810360408301526140a38184612cf2565b9050949350505050565b7f43616e206f6e6c7920726573657420616674657220656c656374696f6e20697360008201527f20636c6f73656400000000000000000000000000000000000000000000000000602082015250565b6000614109602783612ce1565b9150614114826140ad565b604082019050919050565b60006020820190508181036000830152614138816140fc565b9050919050565b7f4d617820766f7465727320726561636865640000000000000000000000000000600082015250565b6000614175601283612ce1565b91506141808261413f565b602082019050919050565b600060208201905081810360008301526141a481614168565b9050919050565b7f566f74657220616c726561647920617574686f72697a65640000000000000000600082015250565b60006141e1601883612ce1565b91506141ec826141ab565b602082019050919050565b60006020820190508181036000830152614210816141d4565b905091905056fea264697066735822122009e9d84ea67e1e73739e16665ec7ebfec878940c53f7076aa706b52936e46f4464736f6c634300081c0033",
  "linkReferences": {},
  "deployedLinkReferences": {}
}