{
  "_format": "hh-sol-artifact-1",
  "contractName": "Voting",
  "sourceName": "contracts/Voting.sol",
  "abi": [
    {
      "inputs": [],
      "stateMutability": "nonpayable",
      "type": "constructor"
    },
    {
      "anonymous": false,
      "inputs": [
        {
          "indexed": false,
          "internalType": "string",
          "name": "email",
          "type": "string"
        },
        {
          "indexed": false,
          "internalType": "string",
          "name": "phone",
          "type": "string"
        }
      ],
      "name": "AdminContactUpdated",
      "type": "event"
    },
    {
      "anonymous": false,
      "inputs": [
        {
          "indexed": false,
          "internalType": "uint256",
          "name": "id",
          "type": "uint256"
        },
        {
          "indexed": false,
          "internalType": "string",
          "name": "name",
          "type": "string"
        },
        {
          "indexed": false,
          "internalType": "string",
          "name": "party",
          "type": "string"
        }
      ],
      "name": "CandidateAdded",
      "type": "event"
    },
    {
      "anonymous": false,
      "inputs": [
        {
          "indexed": false,
          "internalType": "enum Voting.ElectionState",
          "name": "newState",
          "type": "uint8"
        }
      ],
      "name": "ElectionStateChanged",
      "type": "event"
    },
    {
      "anonymous": false,
      "inputs": [
        {
          "indexed": false,
          "internalType": "uint256",
          "name": "startTime",
          "type": "uint256"
        },
        {
          "indexed": false,
          "internalType": "uint256",
          "name": "endTime",
          "type": "uint256"
        }
      ],
      "name": "ElectionTimesSet",
      "type": "event"
    },
    {
      "anonymous": false,
      "inputs": [
        {
          "indexed": false,
          "internalType": "uint256",
          "name": "maxCandidates",
          "type": "uint256"
        },
        {
          "indexed": false,
          "internalType": "uint256",
          "name": "maxVoters",
          "type": "uint256"
        },
        {
          "indexed": false,
          "internalType": "uint256",
          "name": "maxRegisteredUsers",
          "type": "uint256"
        }
      ],
      "name": "LimitsUpdated",
      "type": "event"
    },
    {
      "anonymous": false,
      "inputs": [
        {
          "indexed": false,
          "internalType": "address",
          "name": "userAddress",
          "type": "address"
        },
        {
          "indexed": false,
          "internalType": "string",
          "name": "username",
          "type": "string"
        }
      ],
      "name": "UserDeleted",
      "type": "event"
    },
    {
      "anonymous": false,
      "inputs": [
        {
          "indexed": false,
          "internalType": "address",
          "name": "userAddress",
          "type": "address"
        },
        {
          "indexed": false,
          "internalType": "string",
          "name": "username",
          "type": "string"
        }
      ],
      "name": "UserRegistered",
      "type": "event"
    },
    {
      "anonymous": false,
      "inputs": [
        {
          "indexed": false,
          "internalType": "address",
          "name": "voter",
          "type": "address"
        },
        {
          "indexed": false,
          "internalType": "uint256",
          "name": "candidateId",
          "type": "uint256"
        }
      ],
      "name": "VoteCasted",
      "type": "event"
    },
    {
      "anonymous": false,
      "inputs": [
        {
          "indexed": false,
          "internalType": "address",
          "name": "voter",
          "type": "address"
        }
      ],
      "name": "VoterAuthorized",
      "type": "event"
    },
    {
      "inputs": [
        {
          "internalType": "string",
          "name": "_name",
          "type": "string"
        },
        {
          "internalType": "string",
          "name": "_party",
          "type": "string"
        },
        {
          "internalType": "string",
          "name": "_imageUrl",
          "type": "string"
        }
      ],
      "name": "addCandidate",
      "outputs": [],
      "stateMutability": "nonpayable",
      "type": "function"
    },
    {
      "inputs": [],
      "name": "admin",
      "outputs": [
        {
          "internalType": "address",
          "name": "",
          "type": "address"
        }
      ],
      "stateMutability": "view",
      "type": "function"
    },
    {
      "inputs": [],
      "name": "adminEmail",
      "outputs": [
        {
          "internalType": "string",
          "name": "",
          "type": "string"
        }
      ],
      "stateMutability": "view",
      "type": "function"
    },
    {
      "inputs": [],
      "name": "adminPhone",
      "outputs": [
        {
          "internalType": "string",
          "name": "",
          "type": "string"
        }
      ],
      "stateMutability": "view",
      "type": "function"
    },
    {
      "inputs": [
        {
          "internalType": "address",
          "name": "_voter",
          "type": "address"
        }
      ],
      "name": "authorizeVoter",
      "outputs": [],
      "stateMutability": "nonpayable",
      "type": "function"
    },
    {
      "inputs": [
        {
          "internalType": "uint256",
          "name": "",
          "type": "uint256"
        }
      ],
      "name": "candidates",
      "outputs": [
        {
          "internalType": "uint256",
          "name": "id",
          "type": "uint256"
        },
        {
          "internalType": "string",
          "name": "name",
          "type": "string"
        },
        {
          "internalType": "string",
          "name": "party",
          "type": "string"
        },
        {
          "internalType": "string",
          "name": "imageUrl",
          "type": "string"
        },
        {
          "internalType": "uint256",
          "name": "voteCount",
          "type": "uint256"
        }
      ],
      "stateMutability": "view",
      "type": "function"
    },
    {
      "inputs": [
        {
          "internalType": "address",
          "name": "_userAddress",
          "type": "address"
        }
      ],
      "name": "deleteUser",
      "outputs": [],
      "stateMutability": "nonpayable",
      "type": "function"
    },
    {
      "inputs": [],
      "name": "electionState",
      "outputs": [
        {
          "internalType": "enum Voting.ElectionState",
          "name": "",
          "type": "uint8"
        }
      ],
      "stateMutability": "view",
      "type": "function"
    },
    {
      "inputs": [],
      "name": "endElection",
      "outputs": [],
      "stateMutability": "nonpayable",
      "type": "function"
    },
    {
      "inputs": [],
      "name": "endTime",
      "outputs": [
        {
          "internalType": "uint256",
          "name": "",
          "type": "uint256"
        }
      ],
      "stateMutability": "view",
      "type": "function"
    },
    {
      "inputs": [],
      "name": "getAllVoters",
      "outputs": [
        {
          "internalType": "address[]",
          "name": "",
          "type": "address[]"
        }
      ],
      "stateMutability": "view",
      "type": "function"
    },
    {
      "inputs": [],
      "name": "getCandidates",
      "outputs": [
        {
          "components": [
            {
              "internalType": "uint256",
              "name": "id",
              "type": "uint256"
            },
            {
              "internalType": "string",
              "name": "name",
              "type": "string"
            },
            {
              "internalType": "string",
              "name": "party",
              "type": "string"
            },
            {
              "internalType": "string",
              "name": "imageUrl",
              "type": "string"
            },
            {
              "internalType": "uint256",
              "name": "voteCount",
              "type": "uint256"
            }
          ],
          "internalType": "struct Voting.Candidate[]",
          "name": "",
          "type": "tuple[]"
        }
      ],
      "stateMutability": "view",
      "type": "function"
    },
    {
      "inputs": [],
      "name": "getElectionTimes",
      "outputs": [
        {
          "internalType": "uint256",
          "name": "",
          "type": "uint256"
        },
        {
          "internalType": "uint256",
          "name": "",
          "type": "uint256"
        }
      ],
      "stateMutability": "view",
      "type": "function"
    },
    {
      "inputs": [],
      "name": "getRegisteredUsers",
      "outputs": [
        {
          "components": [
            {
              "internalType": "address",
              "name": "userAddress",
              "type": "address"
            },
            {
              "internalType": "string",
              "name": "username",
              "type": "string"
            },
            {
              "internalType": "bool",
              "name": "isRegistered",
              "type": "bool"
            }
          ],
          "internalType": "struct Voting.RegisteredUser[]",
          "name": "",
          "type": "tuple[]"
        }
      ],
      "stateMutability": "view",
      "type": "function"
    },
    {
      "inputs": [
        {
          "internalType": "address",
          "name": "_user",
          "type": "address"
        }
      ],
      "name": "getUserInfo",
      "outputs": [
        {
          "internalType": "string",
          "name": "username",
          "type": "string"
        },
        {
          "internalType": "bool",
          "name": "isRegistered",
          "type": "bool"
        },
        {
          "internalType": "bool",
          "name": "isAuthorized",
          "type": "bool"
        },
        {
          "internalType": "bool",
          "name": "hasVoted",
          "type": "bool"
        }
      ],
      "stateMutability": "view",
      "type": "function"
    },
    {
      "inputs": [
        {
          "internalType": "address",
          "name": "_voter",
          "type": "address"
        }
      ],
      "name": "getVoterStatus",
      "outputs": [
        {
          "internalType": "bool",
          "name": "isAuthorized",
          "type": "bool"
        },
        {
          "internalType": "bool",
          "name": "hasVoted",
          "type": "bool"
        }
      ],
      "stateMutability": "view",
      "type": "function"
    },
    {
      "inputs": [],
      "name": "maxCandidates",
      "outputs": [
        {
          "internalType": "uint256",
          "name": "",
          "type": "uint256"
        }
      ],
      "stateMutability": "view",
      "type": "function"
    },
    {
      "inputs": [],
      "name": "maxRegisteredUsers",
      "outputs": [
        {
          "internalType": "uint256",
          "name": "",
          "type": "uint256"
        }
      ],
      "stateMutability": "view",
      "type": "function"
    },
    {
      "inputs": [],
      "name": "maxVoters",
      "outputs": [
        {
          "internalType": "uint256",
          "name": "",
          "type": "uint256"
        }
      ],
      "stateMutability": "view",
      "type": "function"
    },
    {
      "inputs": [
        {
          "internalType": "string",
          "name": "_username",
          "type": "string"
        }
      ],
      "name": "registerUser",
      "outputs": [],
      "stateMutability": "nonpayable",
      "type": "function"
    },
    {
      "inputs": [
        {
          "internalType": "uint256",
          "name": "",
          "type": "uint256"
        }
      ],
      "name": "registeredUserAddresses",
      "outputs": [
        {
          "internalType": "address",
          "name": "",
          "type": "address"
        }
      ],
      "stateMutability": "view",
      "type": "function"
    },
    {
      "inputs": [
        {
          "internalType": "address",
          "name": "",
          "type": "address"
        }
      ],
      "name": "registeredUsers",
      "outputs": [
        {
          "internalType": "address",
          "name": "userAddress",
          "type": "address"
        },
        {
          "internalType": "string",
          "name": "username",
          "type": "string"
        },
        {
          "internalType": "bool",
          "name": "isRegistered",
          "type": "bool"
        }
      ],
      "stateMutability": "view",
      "type": "function"
    },
    {
      "inputs": [],
      "name": "resetElection",
      "outputs": [],
      "stateMutability": "nonpayable",
      "type": "function"
    },
    {
      "inputs": [
        {
          "internalType": "string",
          "name": "_email",
          "type": "string"
        },
        {
          "internalType": "string",
          "name": "_phone",
          "type": "string"
        }
      ],
      "name": "setAdminContact",
      "outputs": [],
      "stateMutability": "nonpayable",
      "type": "function"
    },
    {
      "inputs": [
        {
          "internalType": "uint256",
          "name": "_startTime",
          "type": "uint256"
        },
        {
          "internalType": "uint256",
          "name": "_endTime",
          "type": "uint256"
        }
      ],
      "name": "setElectionTimes",
      "outputs": [],
      "stateMutability": "nonpayable",
      "type": "function"
    },
    {
      "inputs": [
        {
          "internalType": "uint256",
          "name": "_maxCandidates",
          "type": "uint256"
        },
        {
          "internalType": "uint256",
          "name": "_maxVoters",
          "type": "uint256"
        },
        {
          "internalType": "uint256",
          "name": "_maxRegisteredUsers",
          "type": "uint256"
        }
      ],
      "name": "setLimits",
      "outputs": [],
      "stateMutability": "nonpayable",
      "type": "function"
    },
    {
      "inputs": [],
      "name": "startElection",
      "outputs": [],
      "stateMutability": "nonpayable",
      "type": "function"
    },
    {
      "inputs": [],
      "name": "startTime",
      "outputs": [
        {
          "internalType": "uint256",
          "name": "",
          "type": "uint256"
        }
      ],
      "stateMutability": "view",
      "type": "function"
    },
    {
      "inputs": [
        {
          "internalType": "uint256",
          "name": "_candidateId",
          "type": "uint256"
        }
      ],
      "name": "vote",
      "outputs": [],
      "stateMutability": "nonpayable",
      "type": "function"
    },
    {
      "inputs": [
        {
          "internalType": "uint256",
          "name": "",
          "type": "uint256"
        }
      ],
      "name": "voterAddresses",
      "outputs": [
        {
          "internalType": "address",
          "name": "",
          "type": "address"
        }
      ],
      "stateMutability": "view",
      "type": "function"
    },
    {
      "inputs": [
        {
          "internalType": "address",
          "name": "",
          "type": "address"
        }
      ],
      "name": "voters",
      "outputs": [
        {
          "internalType": "bool",
          "name": "isAuthorized",
          "type": "bool"
        },
        {
          "internalType": "bool",
          "name": "hasVoted",
          "type": "bool"
        },
        {
          "internalType": "uint256",
          "name": "votedCandidateId",
          "type": "uint256"
        }
      ],
      "stateMutability": "view",
      "type": "function"
    }
  ],
  "bytecode": "0x608060405234801561001057600080fd5b50336000806101000a81548173ffffffffffffffffffffffffffffffffffffffff021916908373ffffffffffffffffffffffffffffffffffffffff1602179055506000600660006101000a81548160ff0219169083600281111561007757610076610123565b5b0217905550600a600781905550606460088190555060c86009819055506040518060400160405280601481526020017f61646d696e407472757374636861696e2e636f6d000000000000000000000000815250600c90816100d891906103a2565b506040518060400160405280600b81526020017f2b31323334353637383930000000000000000000000000000000000000000000815250600d908161011d91906103a2565b50610474565b7f4e487b7100000000000000000000000000000000000000000000000000000000600052602160045260246000fd5b600081519050919050565b7f4e487b7100000000000000000000000000000000000000000000000000000000600052604160045260246000fd5b7f4e487b7100000000000000000000000000000000000000000000000000000000600052602260045260246000fd5b600060028204905060018216806101d357607f821691505b6020821081036101e6576101e561018c565b5b50919050565b60008190508160005260206000209050919050565b60006020601f8301049050919050565b600082821b905092915050565b60006008830261024e7fffffffffffffffffffffffffffffffffffffffffffffffffffffffffffffffff82610211565b6102588683610211565b95508019841693508086168417925050509392505050565b6000819050919050565b6000819050919050565b600061029f61029a61029584610270565b61027a565b610270565b9050919050565b6000819050919050565b6102b983610284565b6102cd6102c5826102a6565b84845461021e565b825550505050565b600090565b6102e26102d5565b6102ed8184846102b0565b505050565b5b81811015610311576103066000826102da565b6001810190506102f3565b5050565b601f82111561035657610327816101ec565b61033084610201565b8101602085101561033f578190505b61035361034b85610201565b8301826102f2565b50505b505050565b600082821c905092915050565b60006103796000198460080261035b565b1980831691505092915050565b60006103928383610368565b9150826002028217905092915050565b6103ab82610152565b67ffffffffffffffff8111156103c4576103c361015d565b5b6103ce82546101bb565b6103d9828285610315565b600060209050601f83116001811461040c57600084156103fa578287015190505b6104048582610386565b86555061046c565b601f19841661041a866101ec565b60005b828110156104425784890151825560018201915060208501945060208101905061041d565b8683101561045f578489015161045b601f891682610368565b8355505b6001600288020188555050505b505050505050565b61459e806104836000396000f3fe608060405234801561001057600080fd5b50600436106101e55760003560e01c80636386c1c71161010f578063a3ec138d116100a2578063e8f3052311610071578063e8f3052314610568578063f851a44014610572578063f9fc032014610590578063fd47b368146105af576101e5565b8063a3ec138d146104cc578063ad71f8dc146104fe578063d5e50a631461051a578063dd0e237314610538576101e5565b806378e3ef20116100de57806378e3ef201461044157806378e97925146104725780637c46286c14610490578063a07f9661146104ae576101e5565b80636386c1c7146103b657806365af2ac8146103e9578063704f1b94146104075780637073c07214610423576101e5565b80633197cbb6116101875780634c1cce74116101565780634c1cce741461036857806359f78468146103865780635c60f2261461039057806362d73eb8146103ac576101e5565b80633197cbb6146102dc5780633477ee2e146102fa57806335bbe70e1461032e57806339de8aac1461034c576101e5565b8063189ae5f2116101c3578063189ae5f2146102565780632280043d146102725780632365dce21461029057806325d5b5cf146102c0576101e5565b80630121b93f146101ea57806306a49fce146102065780630e50cee514610224575b600080fd5b61020460048036038101906101ff9190612c93565b6105cb565b005b61020e6108bf565b60405161021b9190612ea5565b60405180910390f35b61023e60048036038101906102399190612f25565b610ae8565b60405161024d93929190612fc6565b60405180910390f35b610270600480360381019061026b9190613004565b610bc7565b005b61027a610caa565b60405161028791906130ce565b60405180910390f35b6102aa60048036038101906102a59190612c93565b610cbd565b6040516102b791906130e9565b60405180910390f35b6102da60048036038101906102d59190613104565b610cfc565b005b6102e4610ecf565b6040516102f19190613153565b60405180910390f35b610314600480360381019061030f9190612c93565b610ed5565b60405161032595949392919061316e565b60405180910390f35b6103366110b3565b6040516103439190613294565b60405180910390f35b610366600480360381019061036191906133eb565b611141565b005b61037061122c565b60405161037d9190613463565b60405180910390f35b61038e6112ba565b005b6103aa60048036038101906103a59190612f25565b611423565b005b6103b46118f0565b005b6103d060048036038101906103cb9190612f25565b611aac565b6040516103e09493929190613485565b60405180910390f35b6103f1611c80565b6040516103fe9190613153565b60405180910390f35b610421600480360381019061041c91906134d1565b611c86565b005b61042b611eec565b604051610438919061363b565b60405180910390f35b61045b60048036038101906104569190612f25565b612119565b60405161046992919061365d565b60405180910390f35b61047a6121c5565b6040516104879190613153565b60405180910390f35b6104986121cb565b6040516104a59190613153565b60405180910390f35b6104b66121d1565b6040516104c39190613463565b60405180910390f35b6104e660048036038101906104e19190612f25565b61225f565b6040516104f593929190613686565b60405180910390f35b610518600480360381019061051391906136bd565b6122a3565b005b6105226124e6565b60405161052f9190613153565b60405180910390f35b610552600480360381019061054d9190612c93565b6124ec565b60405161055f91906130e9565b60405180910390f35b61057061252b565b005b61057a612884565b60405161058791906130e9565b60405180910390f35b6105986128a8565b6040516105a6929190613764565b60405180910390f35b6105c960048036038101906105c49190612f25565b6128b9565b005b600160028111156105df576105de613057565b5b600660009054906101000a900460ff16600281111561060157610600613057565b5b14610641576040517f08c379a0000000000000000000000000000000000000000000000000000000008152600401610638906137d9565b60405180910390fd5b600160003373ffffffffffffffffffffffffffffffffffffffff1673ffffffffffffffffffffffffffffffffffffffff16815260200190815260200160002060000160009054906101000a900460ff166106d0576040517f08c379a00000000000000000000000000000000000000000000000000000000081526004016106c790613845565b60405180910390fd5b600160003373ffffffffffffffffffffffffffffffffffffffff1673ffffffffffffffffffffffffffffffffffffffff16815260200190815260200160002060000160019054906101000a900460ff1615610760576040517f08c379a0000000000000000000000000000000000000000000000000000000008152600401610757906138b1565b60405180910390fd5b60038054905081106107a7576040517f08c379a000000000000000000000000000000000000000000000000000000000815260040161079e9061391d565b60405180910390fd5b60018060003373ffffffffffffffffffffffffffffffffffffffff1673ffffffffffffffffffffffffffffffffffffffff16815260200190815260200160002060000160016101000a81548160ff02191690831515021790555080600160003373ffffffffffffffffffffffffffffffffffffffff1673ffffffffffffffffffffffffffffffffffffffff168152602001908152602001600020600101819055506003818154811061085c5761085b61393d565b5b9060005260206000209060050201600401600081548092919061087e9061399b565b91905055507fd0e6c39f2e086dc49f1524b47725526a56945cd1ff661f37976f1725a1e5698633826040516108b49291906139e3565b60405180910390a150565b60606003805480602002602001604051908101604052809291908181526020016000905b82821015610adf57838290600052602060002090600502016040518060a00160405290816000820154815260200160018201805461092090613a3b565b80601f016020809104026020016040519081016040528092919081815260200182805461094c90613a3b565b80156109995780601f1061096e57610100808354040283529160200191610999565b820191906000526020600020905b81548152906001019060200180831161097c57829003601f168201915b505050505081526020016002820180546109b290613a3b565b80601f01602080910402602001604051908101604052809291908181526020018280546109de90613a3b565b8015610a2b5780601f10610a0057610100808354040283529160200191610a2b565b820191906000526020600020905b815481529060010190602001808311610a0e57829003601f168201915b50505050508152602001600382018054610a4490613a3b565b80601f0160208091040260200160405190810160405280929190818152602001828054610a7090613a3b565b8015610abd5780601f10610a9257610100808354040283529160200191610abd565b820191906000526020600020905b815481529060010190602001808311610aa057829003601f168201915b50505050508152602001600482015481525050815260200190600101906108e3565b50505050905090565b60026020528060005260406000206000915090508060000160009054906101000a900473ffffffffffffffffffffffffffffffffffffffff1690806001018054610b3190613a3b565b80601f0160208091040260200160405190810160405280929190818152602001828054610b5d90613a3b565b8015610baa5780601f10610b7f57610100808354040283529160200191610baa565b820191906000526020600020905b815481529060010190602001808311610b8d57829003601f168201915b5050505050908060020160009054906101000a900460ff16905083565b60008054906101000a900473ffffffffffffffffffffffffffffffffffffffff1673ffffffffffffffffffffffffffffffffffffffff163373ffffffffffffffffffffffffffffffffffffffff1614610c55576040517f08c379a0000000000000000000000000000000000000000000000000000000008152600401610c4c90613ade565b60405180910390fd5b8260078190555081600881905550806009819055507faa2ef8ba434f2f6bdaad3fcc2d5c35f02b08a47173c94877259407614bc46b55838383604051610c9d93929190613afe565b60405180910390a1505050565b600660009054906101000a900460ff1681565b60058181548110610ccd57600080fd5b906000526020600020016000915054906101000a900473ffffffffffffffffffffffffffffffffffffffff1681565b60008054906101000a900473ffffffffffffffffffffffffffffffffffffffff1673ffffffffffffffffffffffffffffffffffffffff163373ffffffffffffffffffffffffffffffffffffffff1614610d8a576040517f08c379a0000000000000000000000000000000000000000000000000000000008152600401610d8190613ade565b60405180910390fd5b60006002811115610d9e57610d9d613057565b5b600660009054906101000a900460ff166002811115610dc057610dbf613057565b5b14610e00576040517f08c379a0000000000000000000000000000000000000000000000000000000008152600401610df790613ba7565b60405180910390fd5b818111610e42576040517f08c379a0000000000000000000000000000000000000000000000000000000008152600401610e3990613c39565b60405180910390fd5b428211610e84576040517f08c379a0000000000000000000000000000000000000000000000000000000008152600401610e7b90613ca5565b60405180910390fd5b81600a8190555080600b819055507f3b9502f0c4ed55d63f6af201e29c5d6b694a6f0ed9d6af926728258c3ed406798282604051610ec3929190613764565b60405180910390a15050565b600b5481565b60038181548110610ee557600080fd5b9060005260206000209060050201600091509050806000015490806001018054610f0e90613a3b565b80601f0160208091040260200160405190810160405280929190818152602001828054610f3a90613a3b565b8015610f875780601f10610f5c57610100808354040283529160200191610f87565b820191906000526020600020905b815481529060010190602001808311610f6a57829003601f168201915b505050505090806002018054610f9c90613a3b565b80601f0160208091040260200160405190810160405280929190818152602001828054610fc890613a3b565b80156110155780601f10610fea57610100808354040283529160200191611015565b820191906000526020600020905b815481529060010190602001808311610ff857829003601f168201915b50505050509080600301805461102a90613a3b565b80601f016020809104026020016040519081016040528092919081815260200182805461105690613a3b565b80156110a35780601f10611078576101008083540402835291602001916110a3565b820191906000526020600020905b81548152906001019060200180831161108657829003601f168201915b5050505050908060040154905085565b6060600480548060200260200160405190810160405280929190818152602001828054801561113757602002820191906000526020600020905b8160009054906101000a900473ffffffffffffffffffffffffffffffffffffffff1673ffffffffffffffffffffffffffffffffffffffff16815260200190600101908083116110ed575b5050505050905090565b60008054906101000a900473ffffffffffffffffffffffffffffffffffffffff1673ffffffffffffffffffffffffffffffffffffffff163373ffffffffffffffffffffffffffffffffffffffff16146111cf576040517f08c379a00000000000000000000000000000000000000000000000000000000081526004016111c690613ade565b60405180910390fd5b81600c90816111de9190613e71565b5080600d90816111ee9190613e71565b507f11152032c4b255cdf3d5cd6f1f7b240591672bc6aec20f4a2913141df1c805d28282604051611220929190613f43565b60405180910390a15050565b600c805461123990613a3b565b80601f016020809104026020016040519081016040528092919081815260200182805461126590613a3b565b80156112b25780601f10611287576101008083540402835291602001916112b2565b820191906000526020600020905b81548152906001019060200180831161129557829003601f168201915b505050505081565b60008054906101000a900473ffffffffffffffffffffffffffffffffffffffff1673ffffffffffffffffffffffffffffffffffffffff163373ffffffffffffffffffffffffffffffffffffffff1614611348576040517f08c379a000000000000000000000000000000000000000000000000000000000815260040161133f90613ade565b60405180910390fd5b6001600281111561135c5761135b613057565b5b600660009054906101000a900460ff16600281111561137e5761137d613057565b5b146113be576040517f08c379a00000000000000000000000000000000000000000000000000000000081526004016113b5906137d9565b60405180910390fd5b6002600660006101000a81548160ff021916908360028111156113e4576113e3613057565b5b02179055507f82aa0cc22cbb103bd5f28a40c65b9e63f2df333bbb70c6c9128eb83d7cb1041d600260405161141991906130ce565b60405180910390a1565b60008054906101000a900473ffffffffffffffffffffffffffffffffffffffff1673ffffffffffffffffffffffffffffffffffffffff163373ffffffffffffffffffffffffffffffffffffffff16146114b1576040517f08c379a00000000000000000000000000000000000000000000000000000000081526004016114a890613ade565b60405180910390fd5b600260008273ffffffffffffffffffffffffffffffffffffffff1673ffffffffffffffffffffffffffffffffffffffff16815260200190815260200160002060020160009054906101000a900460ff16611540576040517f08c379a000000000000000000000000000000000000000000000000000000000815260040161153790613fc6565b60405180910390fd5b600160008273ffffffffffffffffffffffffffffffffffffffff1673ffffffffffffffffffffffffffffffffffffffff16815260200190815260200160002060000160009054906101000a900460ff16156115d0576040517f08c379a00000000000000000000000000000000000000000000000000000000081526004016115c790614032565b60405180910390fd5b6000600260008373ffffffffffffffffffffffffffffffffffffffff1673ffffffffffffffffffffffffffffffffffffffff168152602001908152602001600020600101805461161f90613a3b565b80601f016020809104026020016040519081016040528092919081815260200182805461164b90613a3b565b80156116985780601f1061166d57610100808354040283529160200191611698565b820191906000526020600020905b81548152906001019060200180831161167b57829003601f168201915b50505050509050600260008373ffffffffffffffffffffffffffffffffffffffff1673ffffffffffffffffffffffffffffffffffffffff168152602001908152602001600020600080820160006101000a81549073ffffffffffffffffffffffffffffffffffffffff02191690556001820160006117169190612b17565b6002820160006101000a81549060ff0219169055505060005b6005805490508110156118b2578273ffffffffffffffffffffffffffffffffffffffff16600582815481106117675761176661393d565b5b9060005260206000200160009054906101000a900473ffffffffffffffffffffffffffffffffffffffff1673ffffffffffffffffffffffffffffffffffffffff16036118a557600560016005805490506117c19190614052565b815481106117d2576117d161393d565b5b9060005260206000200160009054906101000a900473ffffffffffffffffffffffffffffffffffffffff16600582815481106118115761181061393d565b5b9060005260206000200160006101000a81548173ffffffffffffffffffffffffffffffffffffffff021916908373ffffffffffffffffffffffffffffffffffffffff160217905550600580548061186b5761186a614086565b5b6001900381819060005260206000200160006101000a81549073ffffffffffffffffffffffffffffffffffffffff021916905590556118b2565b808060010191505061172f565b507f32b931fea2d04014124dfdebbcff93ed4b64527a35af5d25c75a1a79b2f5b3bf82826040516118e49291906140b5565b60405180910390a15050565b60008054906101000a900473ffffffffffffffffffffffffffffffffffffffff1673ffffffffffffffffffffffffffffffffffffffff163373ffffffffffffffffffffffffffffffffffffffff161461197e576040517f08c379a000000000000000000000000000000000000000000000000000000000815260040161197590613ade565b60405180910390fd5b6000600281111561199257611991613057565b5b600660009054906101000a900460ff1660028111156119b4576119b3613057565b5b146119f4576040517f08c379a00000000000000000000000000000000000000000000000000000000081526004016119eb90614157565b60405180910390fd5b6000600a54118015611a0857506000600b54115b611a47576040517f08c379a0000000000000000000000000000000000000000000000000000000008152600401611a3e906141c3565b60405180910390fd5b6001600660006101000a81548160ff02191690836002811115611a6d57611a6c613057565b5b02179055507f82aa0cc22cbb103bd5f28a40c65b9e63f2df333bbb70c6c9128eb83d7cb1041d6001604051611aa291906130ce565b60405180910390a1565b60606000806000600260008673ffffffffffffffffffffffffffffffffffffffff1673ffffffffffffffffffffffffffffffffffffffff168152602001908152602001600020600101600260008773ffffffffffffffffffffffffffffffffffffffff1673ffffffffffffffffffffffffffffffffffffffff16815260200190815260200160002060020160009054906101000a900460ff16600160008873ffffffffffffffffffffffffffffffffffffffff1673ffffffffffffffffffffffffffffffffffffffff16815260200190815260200160002060000160009054906101000a900460ff16600160008973ffffffffffffffffffffffffffffffffffffffff1673ffffffffffffffffffffffffffffffffffffffff16815260200190815260200160002060000160019054906101000a900460ff16838054611bf190613a3b565b80601f0160208091040260200160405190810160405280929190818152602001828054611c1d90613a3b565b8015611c6a5780601f10611c3f57610100808354040283529160200191611c6a565b820191906000526020600020905b815481529060010190602001808311611c4d57829003601f168201915b5050505050935093509350935093509193509193565b60075481565b600260003373ffffffffffffffffffffffffffffffffffffffff1673ffffffffffffffffffffffffffffffffffffffff16815260200190815260200160002060020160009054906101000a900460ff1615611d16576040517f08c379a0000000000000000000000000000000000000000000000000000000008152600401611d0d9061422f565b60405180910390fd5b6000815111611d5a576040517f08c379a0000000000000000000000000000000000000000000000000000000008152600401611d519061429b565b60405180910390fd5b60405180606001604052803373ffffffffffffffffffffffffffffffffffffffff16815260200182815260200160011515815250600260003373ffffffffffffffffffffffffffffffffffffffff1673ffffffffffffffffffffffffffffffffffffffff16815260200190815260200160002060008201518160000160006101000a81548173ffffffffffffffffffffffffffffffffffffffff021916908373ffffffffffffffffffffffffffffffffffffffff1602179055506020820151816001019081611e299190613e71565b5060408201518160020160006101000a81548160ff0219169083151502179055509050506005339080600181540180825580915050600190039060005260206000200160009091909190916101000a81548173ffffffffffffffffffffffffffffffffffffffff021916908373ffffffffffffffffffffffffffffffffffffffff1602179055507f48cac28ad4dc618e15f4c2dd5e97751182f166de97b25618318b2112aa951a2f3382604051611ee19291906140b5565b60405180910390a150565b6060600060058054905067ffffffffffffffff811115611f0f57611f0e6132c0565b5b604051908082528060200260200182016040528015611f4857816020015b611f35612b57565b815260200190600190039081611f2d5790505b50905060005b600580549050811015612111576002600060058381548110611f7357611f7261393d565b5b9060005260206000200160009054906101000a900473ffffffffffffffffffffffffffffffffffffffff1673ffffffffffffffffffffffffffffffffffffffff1673ffffffffffffffffffffffffffffffffffffffff1681526020019081526020016000206040518060600160405290816000820160009054906101000a900473ffffffffffffffffffffffffffffffffffffffff1673ffffffffffffffffffffffffffffffffffffffff1673ffffffffffffffffffffffffffffffffffffffff16815260200160018201805461204990613a3b565b80601f016020809104026020016040519081016040528092919081815260200182805461207590613a3b565b80156120c25780601f10612097576101008083540402835291602001916120c2565b820191906000526020600020905b8154815290600101906020018083116120a557829003601f168201915b505050505081526020016002820160009054906101000a900460ff1615151515815250508282815181106120f9576120f861393d565b5b60200260200101819052508080600101915050611f4e565b508091505090565b600080600160008473ffffffffffffffffffffffffffffffffffffffff1673ffffffffffffffffffffffffffffffffffffffff16815260200190815260200160002060000160009054906101000a900460ff16600160008573ffffffffffffffffffffffffffffffffffffffff1673ffffffffffffffffffffffffffffffffffffffff16815260200190815260200160002060000160019054906101000a900460ff1691509150915091565b600a5481565b60095481565b600d80546121de90613a3b565b80601f016020809104026020016040519081016040528092919081815260200182805461220a90613a3b565b80156122575780601f1061222c57610100808354040283529160200191612257565b820191906000526020600020905b81548152906001019060200180831161223a57829003601f168201915b505050505081565b60016020528060005260406000206000915090508060000160009054906101000a900460ff16908060000160019054906101000a900460ff16908060010154905083565b60008054906101000a900473ffffffffffffffffffffffffffffffffffffffff1673ffffffffffffffffffffffffffffffffffffffff163373ffffffffffffffffffffffffffffffffffffffff1614612331576040517f08c379a000000000000000000000000000000000000000000000000000000000815260040161232890613ade565b60405180910390fd5b6007546003805490501061237a576040517f08c379a000000000000000000000000000000000000000000000000000000000815260040161237190614307565b60405180910390fd5b6000600281111561238e5761238d613057565b5b600660009054906101000a900460ff1660028111156123b0576123af613057565b5b146123f0576040517f08c379a00000000000000000000000000000000000000000000000000000000081526004016123e790614399565b60405180910390fd5b6000600380549050905060036040518060a001604052808381526020018681526020018581526020018481526020016000815250908060018154018082558091505060019003906000526020600020906005020160009091909190915060008201518160000155602082015181600101908161246c9190613e71565b5060408201518160020190816124829190613e71565b5060608201518160030190816124989190613e71565b506080820151816004015550507fe64f834082661dd9ed89427b87edb6270fd6dad17198b0938f0edd058914c87f8185856040516124d8939291906143b9565b60405180910390a150505050565b60085481565b600481815481106124fc57600080fd5b906000526020600020016000915054906101000a900473ffffffffffffffffffffffffffffffffffffffff1681565b60008054906101000a900473ffffffffffffffffffffffffffffffffffffffff1673ffffffffffffffffffffffffffffffffffffffff163373ffffffffffffffffffffffffffffffffffffffff16146125b9576040517f08c379a00000000000000000000000000000000000000000000000000000000081526004016125b090613ade565b60405180910390fd5b6002808111156125cc576125cb613057565b5b600660009054906101000a900460ff1660028111156125ee576125ed613057565b5b1461262e576040517f08c379a000000000000000000000000000000000000000000000000000000000815260040161262590614470565b60405180910390fd5b6003600061263c9190612b90565b60005b6004805490508110156127095760016000600483815481106126645761266361393d565b5b9060005260206000200160009054906101000a900473ffffffffffffffffffffffffffffffffffffffff1673ffffffffffffffffffffffffffffffffffffffff1673ffffffffffffffffffffffffffffffffffffffff168152602001908152602001600020600080820160006101000a81549060ff02191690556000820160016101000a81549060ff021916905560018201600090555050808060010191505061263f565b50600460006127189190612bb4565b60005b6005805490508110156128005760026000600583815481106127405761273f61393d565b5b9060005260206000200160009054906101000a900473ffffffffffffffffffffffffffffffffffffffff1673ffffffffffffffffffffffffffffffffffffffff1673ffffffffffffffffffffffffffffffffffffffff168152602001908152602001600020600080820160006101000a81549073ffffffffffffffffffffffffffffffffffffffff02191690556001820160006127dd9190612b17565b6002820160006101000a81549060ff02191690555050808060010191505061271b565b506005600061280f9190612bb4565b6000600a819055506000600b819055506000600660006101000a81548160ff0219169083600281111561284557612844613057565b5b02179055507f82aa0cc22cbb103bd5f28a40c65b9e63f2df333bbb70c6c9128eb83d7cb1041d600060405161287a91906130ce565b60405180910390a1565b60008054906101000a900473ffffffffffffffffffffffffffffffffffffffff1681565b600080600a54600b54915091509091565b60008054906101000a900473ffffffffffffffffffffffffffffffffffffffff1673ffffffffffffffffffffffffffffffffffffffff163373ffffffffffffffffffffffffffffffffffffffff1614612947576040517f08c379a000000000000000000000000000000000000000000000000000000000815260040161293e90613ade565b60405180910390fd5b60085460048054905010612990576040517f08c379a0000000000000000000000000000000000000000000000000000000008152600401612987906144dc565b60405180910390fd5b600160008273ffffffffffffffffffffffffffffffffffffffff1673ffffffffffffffffffffffffffffffffffffffff16815260200190815260200160002060000160009054906101000a900460ff1615612a20576040517f08c379a0000000000000000000000000000000000000000000000000000000008152600401612a1790614548565b60405180910390fd5b60018060008373ffffffffffffffffffffffffffffffffffffffff1673ffffffffffffffffffffffffffffffffffffffff16815260200190815260200160002060000160006101000a81548160ff0219169083151502179055506004819080600181540180825580915050600190039060005260206000200160009091909190916101000a81548173ffffffffffffffffffffffffffffffffffffffff021916908373ffffffffffffffffffffffffffffffffffffffff1602179055507f0ca65a9f1f88bd7257ac852d1062853358f81cdc56f9634dcbeed6090f8dfb4381604051612b0c91906130e9565b60405180910390a150565b508054612b2390613a3b565b6000825580601f10612b355750612b54565b601f016020900490600052602060002090810190612b539190612bd5565b5b50565b6040518060600160405280600073ffffffffffffffffffffffffffffffffffffffff168152602001606081526020016000151581525090565b5080546000825560050290600052602060002090810190612bb19190612bf2565b50565b5080546000825590600052602060002090810190612bd29190612bd5565b50565b5b80821115612bee576000816000905550600101612bd6565b5090565b5b80821115612c4557600080820160009055600182016000612c149190612b17565b600282016000612c249190612b17565b600382016000612c349190612b17565b600482016000905550600501612bf3565b5090565b6000604051905090565b600080fd5b600080fd5b6000819050919050565b612c7081612c5d565b8114612c7b57600080fd5b50565b600081359050612c8d81612c67565b92915050565b600060208284031215612ca957612ca8612c53565b5b6000612cb784828501612c7e565b91505092915050565b600081519050919050565b600082825260208201905092915050565b6000819050602082019050919050565b612cf581612c5d565b82525050565b600081519050919050565b600082825260208201905092915050565b60005b83811015612d35578082015181840152602081019050612d1a565b60008484015250505050565b6000601f19601f8301169050919050565b6000612d5d82612cfb565b612d678185612d06565b9350612d77818560208601612d17565b612d8081612d41565b840191505092915050565b600060a083016000830151612da36000860182612cec565b5060208301518482036020860152612dbb8282612d52565b91505060408301518482036040860152612dd58282612d52565b91505060608301518482036060860152612def8282612d52565b9150506080830151612e046080860182612cec565b508091505092915050565b6000612e1b8383612d8b565b905092915050565b6000602082019050919050565b6000612e3b82612cc0565b612e458185612ccb565b935083602082028501612e5785612cdc565b8060005b85811015612e935784840389528151612e748582612e0f565b9450612e7f83612e23565b925060208a01995050600181019050612e5b565b50829750879550505050505092915050565b60006020820190508181036000830152612ebf8184612e30565b905092915050565b600073ffffffffffffffffffffffffffffffffffffffff82169050919050565b6000612ef282612ec7565b9050919050565b612f0281612ee7565b8114612f0d57600080fd5b50565b600081359050612f1f81612ef9565b92915050565b600060208284031215612f3b57612f3a612c53565b5b6000612f4984828501612f10565b91505092915050565b612f5b81612ee7565b82525050565b600082825260208201905092915050565b6000612f7d82612cfb565b612f878185612f61565b9350612f97818560208601612d17565b612fa081612d41565b840191505092915050565b60008115159050919050565b612fc081612fab565b82525050565b6000606082019050612fdb6000830186612f52565b8181036020830152612fed8185612f72565b9050612ffc6040830184612fb7565b949350505050565b60008060006060848603121561301d5761301c612c53565b5b600061302b86828701612c7e565b935050602061303c86828701612c7e565b925050604061304d86828701612c7e565b9150509250925092565b7f4e487b7100000000000000000000000000000000000000000000000000000000600052602160045260246000fd5b6003811061309757613096613057565b5b50565b60008190506130a882613086565b919050565b60006130b88261309a565b9050919050565b6130c8816130ad565b82525050565b60006020820190506130e360008301846130bf565b92915050565b60006020820190506130fe6000830184612f52565b92915050565b6000806040838503121561311b5761311a612c53565b5b600061312985828601612c7e565b925050602061313a85828601612c7e565b9150509250929050565b61314d81612c5d565b82525050565b60006020820190506131686000830184613144565b92915050565b600060a0820190506131836000830188613144565b81810360208301526131958187612f72565b905081810360408301526131a98186612f72565b905081810360608301526131bd8185612f72565b90506131cc6080830184613144565b9695505050505050565b600081519050919050565b600082825260208201905092915050565b6000819050602082019050919050565b61320b81612ee7565b82525050565b600061321d8383613202565b60208301905092915050565b6000602082019050919050565b6000613241826131d6565b61324b81856131e1565b9350613256836131f2565b8060005b8381101561328757815161326e8882613211565b975061327983613229565b92505060018101905061325a565b5085935050505092915050565b600060208201905081810360008301526132ae8184613236565b905092915050565b600080fd5b600080fd5b7f4e487b7100000000000000000000000000000000000000000000000000000000600052604160045260246000fd5b6132f882612d41565b810181811067ffffffffffffffff82111715613317576133166132c0565b5b80604052505050565b600061332a612c49565b905061333682826132ef565b919050565b600067ffffffffffffffff821115613356576133556132c0565b5b61335f82612d41565b9050602081019050919050565b82818337600083830152505050565b600061338e6133898461333b565b613320565b9050828152602081018484840111156133aa576133a96132bb565b5b6133b584828561336c565b509392505050565b600082601f8301126133d2576133d16132b6565b5b81356133e284826020860161337b565b91505092915050565b6000806040838503121561340257613401612c53565b5b600083013567ffffffffffffffff8111156134205761341f612c58565b5b61342c858286016133bd565b925050602083013567ffffffffffffffff81111561344d5761344c612c58565b5b613459858286016133bd565b9150509250929050565b6000602082019050818103600083015261347d8184612f72565b905092915050565b6000608082019050818103600083015261349f8187612f72565b90506134ae6020830186612fb7565b6134bb6040830185612fb7565b6134c86060830184612fb7565b95945050505050565b6000602082840312156134e7576134e6612c53565b5b600082013567ffffffffffffffff81111561350557613504612c58565b5b613511848285016133bd565b91505092915050565b600081519050919050565b600082825260208201905092915050565b6000819050602082019050919050565b61354f81612fab565b82525050565b600060608301600083015161356d6000860182613202565b50602083015184820360208601526135858282612d52565b915050604083015161359a6040860182613546565b508091505092915050565b60006135b18383613555565b905092915050565b6000602082019050919050565b60006135d18261351a565b6135db8185613525565b9350836020820285016135ed85613536565b8060005b85811015613629578484038952815161360a85826135a5565b9450613615836135b9565b925060208a019950506001810190506135f1565b50829750879550505050505092915050565b6000602082019050818103600083015261365581846135c6565b905092915050565b60006040820190506136726000830185612fb7565b61367f6020830184612fb7565b9392505050565b600060608201905061369b6000830186612fb7565b6136a86020830185612fb7565b6136b56040830184613144565b949350505050565b6000806000606084860312156136d6576136d5612c53565b5b600084013567ffffffffffffffff8111156136f4576136f3612c58565b5b613700868287016133bd565b935050602084013567ffffffffffffffff81111561372157613720612c58565b5b61372d868287016133bd565b925050604084013567ffffffffffffffff81111561374e5761374d612c58565b5b61375a868287016133bd565b9150509250925092565b60006040820190506137796000830185613144565b6137866020830184613144565b9392505050565b7f456c656374696f6e206973206e6f74206f70656e000000000000000000000000600082015250565b60006137c3601483612f61565b91506137ce8261378d565b602082019050919050565b600060208201905081810360008301526137f2816137b6565b9050919050565b7f596f7520617265206e6f7420617574686f72697a656420746f20766f74650000600082015250565b600061382f601e83612f61565b915061383a826137f9565b602082019050919050565b6000602082019050818103600083015261385e81613822565b9050919050565b7f596f75206861766520616c726561647920766f74656400000000000000000000600082015250565b600061389b601683612f61565b91506138a682613865565b602082019050919050565b600060208201905081810360008301526138ca8161388e565b9050919050565b7f496e76616c69642063616e646964617465204944000000000000000000000000600082015250565b6000613907601483612f61565b9150613912826138d1565b602082019050919050565b60006020820190508181036000830152613936816138fa565b9050919050565b7f4e487b7100000000000000000000000000000000000000000000000000000000600052603260045260246000fd5b7f4e487b7100000000000000000000000000000000000000000000000000000000600052601160045260246000fd5b60006139a682612c5d565b91507fffffffffffffffffffffffffffffffffffffffffffffffffffffffffffffffff82036139d8576139d761396c565b5b600182019050919050565b60006040820190506139f86000830185612f52565b613a056020830184613144565b9392505050565b7f4e487b7100000000000000000000000000000000000000000000000000000000600052602260045260246000fd5b60006002820490506001821680613a5357607f821691505b602082108103613a6657613a65613a0c565b5b50919050565b7f4f6e6c792061646d696e2063616e20706572666f726d2074686973206163746960008201527f6f6e000000000000000000000000000000000000000000000000000000000000602082015250565b6000613ac8602283612f61565b9150613ad382613a6c565b604082019050919050565b60006020820190508181036000830152613af781613abb565b9050919050565b6000606082019050613b136000830186613144565b613b206020830185613144565b613b2d6040830184613144565b949350505050565b7f43616e6e6f74207365742074696d657320616674657220656c656374696f6e2060008201527f7374617274656400000000000000000000000000000000000000000000000000602082015250565b6000613b91602783612f61565b9150613b9c82613b35565b604082019050919050565b60006020820190508181036000830152613bc081613b84565b9050919050565b7f456e642074696d65206d7573742062652061667465722073746172742074696d60008201527f6500000000000000000000000000000000000000000000000000000000000000602082015250565b6000613c23602183612f61565b9150613c2e82613bc7565b604082019050919050565b60006020820190508181036000830152613c5281613c16565b9050919050565b7f53746172742074696d65206d75737420626520696e2074686520667574757265600082015250565b6000613c8f602083612f61565b9150613c9a82613c59565b602082019050919050565b60006020820190508181036000830152613cbe81613c82565b9050919050565b60008190508160005260206000209050919050565b60006020601f8301049050919050565b600082821b905092915050565b600060088302613d277fffffffffffffffffffffffffffffffffffffffffffffffffffffffffffffffff82613cea565b613d318683613cea565b95508019841693508086168417925050509392505050565b6000819050919050565b6000613d6e613d69613d6484612c5d565b613d49565b612c5d565b9050919050565b6000819050919050565b613d8883613d53565b613d9c613d9482613d75565b848454613cf7565b825550505050565b600090565b613db1613da4565b613dbc818484613d7f565b505050565b5b81811015613de057613dd5600082613da9565b600181019050613dc2565b5050565b601f821115613e2557613df681613cc5565b613dff84613cda565b81016020851015613e0e578190505b613e22613e1a85613cda565b830182613dc1565b50505b505050565b600082821c905092915050565b6000613e4860001984600802613e2a565b1980831691505092915050565b6000613e618383613e37565b9150826002028217905092915050565b613e7a82612cfb565b67ffffffffffffffff811115613e9357613e926132c0565b5b613e9d8254613a3b565b613ea8828285613de4565b600060209050601f831160018114613edb5760008415613ec9578287015190505b613ed38582613e55565b865550613f3b565b601f198416613ee986613cc5565b60005b82811015613f1157848901518255600182019150602085019450602081019050613eec565b86831015613f2e5784890151613f2a601f891682613e37565b8355505b6001600288020188555050505b505050505050565b60006040820190508181036000830152613f5d8185612f72565b90508181036020830152613f718184612f72565b90509392505050565b7f55736572206e6f74207265676973746572656400000000000000000000000000600082015250565b6000613fb0601383612f61565b9150613fbb82613f7a565b602082019050919050565b60006020820190508181036000830152613fdf81613fa3565b9050919050565b7f43616e6e6f742064656c65746520617574686f72697a656420766f7465720000600082015250565b600061401c601e83612f61565b915061402782613fe6565b602082019050919050565b6000602082019050818103600083015261404b8161400f565b9050919050565b600061405d82612c5d565b915061406883612c5d565b92508282039050818111156140805761407f61396c565b5b92915050565b7f4e487b7100000000000000000000000000000000000000000000000000000000600052603160045260246000fd5b60006040820190506140ca6000830185612f52565b81810360208301526140dc8184612f72565b90509392505050565b7f456c656374696f6e20616c72656164792073746172746564206f7220636c6f7360008201527f6564000000000000000000000000000000000000000000000000000000000000602082015250565b6000614141602283612f61565b915061414c826140e5565b604082019050919050565b6000602082019050818103600083015261417081614134565b9050919050565b7f456c656374696f6e2074696d6573206d75737420626520736574206669727374600082015250565b60006141ad602083612f61565b91506141b882614177565b602082019050919050565b600060208201905081810360008301526141dc816141a0565b9050919050565b7f5573657220616c72656164792072656769737465726564000000000000000000600082015250565b6000614219601783612f61565b9150614224826141e3565b602082019050919050565b600060208201905081810360008301526142488161420c565b9050919050565b7f557365726e616d652063616e6e6f7420626520656d7074790000000000000000600082015250565b6000614285601883612f61565b91506142908261424f565b602082019050919050565b600060208201905081810360008301526142b481614278565b9050919050565b7f4d61782063616e64696461746573207265616368656400000000000000000000600082015250565b60006142f1601683612f61565b91506142fc826142bb565b602082019050919050565b60006020820190508181036000830152614320816142e4565b9050919050565b7f43616e6e6f74206164642063616e6469646174657320647572696e6720656c6560008201527f6374696f6e000000000000000000000000000000000000000000000000000000602082015250565b6000614383602583612f61565b915061438e82614327565b604082019050919050565b600060208201905081810360008301526143b281614376565b9050919050565b60006060820190506143ce6000830186613144565b81810360208301526143e08185612f72565b905081810360408301526143f48184612f72565b9050949350505050565b7f43616e206f6e6c7920726573657420616674657220656c656374696f6e20697360008201527f20636c6f73656400000000000000000000000000000000000000000000000000602082015250565b600061445a602783612f61565b9150614465826143fe565b604082019050919050565b600060208201905081810360008301526144898161444d565b9050919050565b7f4d617820766f7465727320726561636865640000000000000000000000000000600082015250565b60006144c6601283612f61565b91506144d182614490565b602082019050919050565b600060208201905081810360008301526144f5816144b9565b9050919050565b7f566f74657220616c726561647920617574686f72697a65640000000000000000600082015250565b6000614532601883612f61565b915061453d826144fc565b602082019050919050565b6000602082019050818103600083015261456181614525565b905091905056fea2646970667358221220867748ab6cad367299b2bc944ebb2277f2c2031eb9c4039e70e49e08c76f62d464736f6c634300081c0033",
  "linkReferences": {},
  "deployedLinkReferences": {}
}